{
	"contracts/NBCoin.sol": {
		"NBCoinERC20": {
			"abi": [
				{
					"inputs": [
						{
							"internalType": "uint256",
							"name": "total",
							"type": "uint256"
						}
					],
					"stateMutability": "nonpayable",
					"type": "constructor"
				},
				{
					"anonymous": false,
					"inputs": [
						{
							"indexed": true,
							"internalType": "address",
							"name": "tokenOwner",
							"type": "address"
						},
						{
							"indexed": true,
							"internalType": "address",
							"name": "spender",
							"type": "address"
						},
						{
							"indexed": false,
							"internalType": "uint256",
							"name": "tokens",
							"type": "uint256"
						}
					],
					"name": "Approval",
					"type": "event"
				},
				{
					"anonymous": false,
					"inputs": [
						{
							"indexed": true,
							"internalType": "address",
							"name": "from",
							"type": "address"
						},
						{
							"indexed": true,
							"internalType": "address",
							"name": "to",
							"type": "address"
						},
						{
							"indexed": false,
							"internalType": "uint256",
							"name": "tokens",
							"type": "uint256"
						}
					],
					"name": "Transfer",
					"type": "event"
				},
				{
					"inputs": [
						{
							"internalType": "address",
							"name": "owner",
							"type": "address"
						},
						{
							"internalType": "address",
							"name": "spender",
							"type": "address"
						}
					],
					"name": "allowance",
					"outputs": [
						{
							"internalType": "uint256",
							"name": "",
							"type": "uint256"
						}
					],
					"stateMutability": "view",
					"type": "function"
				},
				{
					"inputs": [
						{
							"internalType": "address",
							"name": "spender",
							"type": "address"
						},
						{
							"internalType": "uint256",
							"name": "amount",
							"type": "uint256"
						}
					],
					"name": "approve",
					"outputs": [
						{
							"internalType": "bool",
							"name": "",
							"type": "bool"
						}
					],
					"stateMutability": "nonpayable",
					"type": "function"
				},
				{
					"inputs": [
						{
							"internalType": "address",
							"name": "tokenOwner",
							"type": "address"
						}
					],
					"name": "balanceOf",
					"outputs": [
						{
							"internalType": "uint256",
							"name": "",
							"type": "uint256"
						}
					],
					"stateMutability": "view",
					"type": "function"
				},
				{
					"inputs": [],
					"name": "decimals",
					"outputs": [
						{
							"internalType": "uint256",
							"name": "",
							"type": "uint256"
						}
					],
					"stateMutability": "view",
					"type": "function"
				},
				{
					"inputs": [],
					"name": "name",
					"outputs": [
						{
							"internalType": "string",
							"name": "",
							"type": "string"
						}
					],
					"stateMutability": "view",
					"type": "function"
				},
				{
					"inputs": [],
					"name": "symbol",
					"outputs": [
						{
							"internalType": "string",
							"name": "",
							"type": "string"
						}
					],
					"stateMutability": "view",
					"type": "function"
				},
				{
					"inputs": [],
					"name": "totalSupply",
					"outputs": [
						{
							"internalType": "uint256",
							"name": "",
							"type": "uint256"
						}
					],
					"stateMutability": "view",
					"type": "function"
				},
				{
					"inputs": [
						{
							"internalType": "address",
							"name": "receiver",
							"type": "address"
						},
						{
							"internalType": "uint256",
							"name": "amount",
							"type": "uint256"
						}
					],
					"name": "transfer",
					"outputs": [
						{
							"internalType": "bool",
							"name": "",
							"type": "bool"
						}
					],
					"stateMutability": "nonpayable",
					"type": "function"
				}
			],
			"devdoc": {
				"kind": "dev",
				"methods": {},
				"version": 1
			},
			"evm": {
				"assembly": "    /* \"contracts/NBCoin.sol\":69:2085  contract NBCoinERC20 {... */\n  mstore(0x40, 0x80)\n    /* \"contracts/NBCoin.sol\":528:633  constructor(uint256 total) {... */\n  callvalue\n  dup1\n  iszero\n  tag_1\n  jumpi\n  0x00\n  dup1\n  revert\ntag_1:\n  pop\n  mload(0x40)\n  sub(codesize, bytecodeSize)\n  dup1\n  bytecodeSize\n  dup4\n  codecopy\n  dup2\n  dup2\n  add\n  0x40\n  mstore\n  dup2\n  add\n  swap1\n  tag_2\n  swap2\n  swap1\n  tag_3\n  jump\t// in\ntag_2:\n    /* \"contracts/NBCoin.sol\":578:583  total */\n  dup1\n    /* \"contracts/NBCoin.sol\":563:575  totalSupply_ */\n  0x02\n    /* \"contracts/NBCoin.sol\":563:583  totalSupply_ = total */\n  dup2\n  swap1\n  sstore\n  pop\n    /* \"contracts/NBCoin.sol\":614:626  totalSupply_ */\n  sload(0x02)\n    /* \"contracts/NBCoin.sol\":591:599  balances */\n  0x00\n    /* \"contracts/NBCoin.sol\":591:611  balances[msg.sender] */\n  dup1\n    /* \"contracts/NBCoin.sol\":600:610  msg.sender */\n  caller\n    /* \"contracts/NBCoin.sol\":591:611  balances[msg.sender] */\n  0xffffffffffffffffffffffffffffffffffffffff\n  and\n  0xffffffffffffffffffffffffffffffffffffffff\n  and\n  dup2\n  mstore\n  0x20\n  add\n  swap1\n  dup2\n  mstore\n  0x20\n  add\n  0x00\n  keccak256\n    /* \"contracts/NBCoin.sol\":591:626  balances[msg.sender] = totalSupply_ */\n  dup2\n  swap1\n  sstore\n  pop\n    /* \"contracts/NBCoin.sol\":528:633  constructor(uint256 total) {... */\n  pop\n    /* \"contracts/NBCoin.sol\":69:2085  contract NBCoinERC20 {... */\n  jump(tag_6)\n    /* \"#utility.yul\":7:150   */\ntag_8:\n    /* \"#utility.yul\":64:69   */\n  0x00\n    /* \"#utility.yul\":95:101   */\n  dup2\n    /* \"#utility.yul\":89:102   */\n  mload\n    /* \"#utility.yul\":80:102   */\n  swap1\n  pop\n    /* \"#utility.yul\":111:144   */\n  tag_10\n    /* \"#utility.yul\":138:143   */\n  dup2\n    /* \"#utility.yul\":111:144   */\n  tag_11\n  jump\t// in\ntag_10:\n    /* \"#utility.yul\":7:150   */\n  swap3\n  swap2\n  pop\n  pop\n  jump\t// out\n    /* \"#utility.yul\":156:507   */\ntag_3:\n    /* \"#utility.yul\":226:232   */\n  0x00\n    /* \"#utility.yul\":275:277   */\n  0x20\n    /* \"#utility.yul\":263:272   */\n  dup3\n    /* \"#utility.yul\":254:261   */\n  dup5\n    /* \"#utility.yul\":250:273   */\n  sub\n    /* \"#utility.yul\":246:278   */\n  slt\n    /* \"#utility.yul\":243:362   */\n  iszero\n  tag_13\n  jumpi\n    /* \"#utility.yul\":281:360   */\n  tag_14\n  tag_15\n  jump\t// in\ntag_14:\n    /* \"#utility.yul\":243:362   */\ntag_13:\n    /* \"#utility.yul\":401:402   */\n  0x00\n    /* \"#utility.yul\":426:490   */\n  tag_16\n    /* \"#utility.yul\":482:489   */\n  dup5\n    /* \"#utility.yul\":473:479   */\n  dup3\n    /* \"#utility.yul\":462:471   */\n  dup6\n    /* \"#utility.yul\":458:480   */\n  add\n    /* \"#utility.yul\":426:490   */\n  tag_8\n  jump\t// in\ntag_16:\n    /* \"#utility.yul\":416:490   */\n  swap2\n  pop\n    /* \"#utility.yul\":372:500   */\n  pop\n    /* \"#utility.yul\":156:507   */\n  swap3\n  swap2\n  pop\n  pop\n  jump\t// out\n    /* \"#utility.yul\":594:671   */\ntag_19:\n    /* \"#utility.yul\":631:638   */\n  0x00\n    /* \"#utility.yul\":660:665   */\n  dup2\n    /* \"#utility.yul\":649:665   */\n  swap1\n  pop\n    /* \"#utility.yul\":594:671   */\n  swap2\n  swap1\n  pop\n  jump\t// out\n    /* \"#utility.yul\":800:917   */\ntag_15:\n    /* \"#utility.yul\":909:910   */\n  0x00\n    /* \"#utility.yul\":906:907   */\n  dup1\n    /* \"#utility.yul\":899:911   */\n  revert\n    /* \"#utility.yul\":923:1045   */\ntag_11:\n    /* \"#utility.yul\":996:1020   */\n  tag_25\n    /* \"#utility.yul\":1014:1019   */\n  dup2\n    /* \"#utility.yul\":996:1020   */\n  tag_19\n  jump\t// in\ntag_25:\n    /* \"#utility.yul\":989:994   */\n  dup2\n    /* \"#utility.yul\":986:1021   */\n  eq\n    /* \"#utility.yul\":976:1039   */\n  tag_26\n  jumpi\n    /* \"#utility.yul\":1035:1036   */\n  0x00\n    /* \"#utility.yul\":1032:1033   */\n  dup1\n    /* \"#utility.yul\":1025:1037   */\n  revert\n    /* \"#utility.yul\":976:1039   */\ntag_26:\n    /* \"#utility.yul\":923:1045   */\n  pop\n  jump\t// out\n    /* \"contracts/NBCoin.sol\":69:2085  contract NBCoinERC20 {... */\ntag_6:\n  dataSize(sub_0)\n  dup1\n  dataOffset(sub_0)\n  0x00\n  codecopy\n  0x00\n  return\nstop\n\nsub_0: assembly {\n        /* \"contracts/NBCoin.sol\":69:2085  contract NBCoinERC20 {... */\n      mstore(0x40, 0x80)\n      callvalue\n      dup1\n      iszero\n      tag_1\n      jumpi\n      0x00\n      dup1\n      revert\n    tag_1:\n      pop\n      jumpi(tag_2, lt(calldatasize, 0x04))\n      shr(0xe0, calldataload(0x00))\n      dup1\n      0x70a08231\n      gt\n      tag_11\n      jumpi\n      dup1\n      0x70a08231\n      eq\n      tag_7\n      jumpi\n      dup1\n      0x95d89b41\n      eq\n      tag_8\n      jumpi\n      dup1\n      0xa9059cbb\n      eq\n      tag_9\n      jumpi\n      dup1\n      0xdd62ed3e\n      eq\n      tag_10\n      jumpi\n      jump(tag_2)\n    tag_11:\n      dup1\n      0x06fdde03\n      eq\n      tag_3\n      jumpi\n      dup1\n      0x095ea7b3\n      eq\n      tag_4\n      jumpi\n      dup1\n      0x18160ddd\n      eq\n      tag_5\n      jumpi\n      dup1\n      0x313ce567\n      eq\n      tag_6\n      jumpi\n    tag_2:\n      0x00\n      dup1\n      revert\n        /* \"contracts/NBCoin.sol\":700:781  function name() public view returns (string memory){... */\n    tag_3:\n      tag_12\n      tag_13\n      jump\t// in\n    tag_12:\n      mload(0x40)\n      tag_14\n      swap2\n      swap1\n      tag_15\n      jump\t// in\n    tag_14:\n      mload(0x40)\n      dup1\n      swap2\n      sub\n      swap1\n      return\n        /* \"contracts/NBCoin.sol\":1605:1779  function approve(address spender, uint256 amount) public returns(bool) {... */\n    tag_4:\n      tag_16\n      0x04\n      dup1\n      calldatasize\n      sub\n      dup2\n      add\n      swap1\n      tag_17\n      swap2\n      swap1\n      tag_18\n      jump\t// in\n    tag_17:\n      tag_19\n      jump\t// in\n    tag_16:\n      mload(0x40)\n      tag_20\n      swap2\n      swap1\n      tag_21\n      jump\t// in\n    tag_20:\n      mload(0x40)\n      dup1\n      swap2\n      sub\n      swap1\n      return\n        /* \"contracts/NBCoin.sol\":1055:1142  function totalSupply() public view returns (uint256) {... */\n    tag_5:\n      tag_22\n      tag_23\n      jump\t// in\n    tag_22:\n      mload(0x40)\n      tag_24\n      swap2\n      swap1\n      tag_25\n      jump\t// in\n    tag_24:\n      mload(0x40)\n      dup1\n      swap2\n      sub\n      swap1\n      return\n        /* \"contracts/NBCoin.sol\":942:1020  function decimals() public view returns (uint) {... */\n    tag_6:\n      tag_26\n      tag_27\n      jump\t// in\n    tag_26:\n      mload(0x40)\n      tag_28\n      swap2\n      swap1\n      tag_25\n      jump\t// in\n    tag_28:\n      mload(0x40)\n      dup1\n      swap2\n      sub\n      swap1\n      return\n        /* \"contracts/NBCoin.sol\":1228:1339  function balanceOf(address tokenOwner) public view returns (uint256) {... */\n    tag_7:\n      tag_29\n      0x04\n      dup1\n      calldatasize\n      sub\n      dup2\n      add\n      swap1\n      tag_30\n      swap2\n      swap1\n      tag_31\n      jump\t// in\n    tag_30:\n      tag_32\n      jump\t// in\n    tag_29:\n      mload(0x40)\n      tag_33\n      swap2\n      swap1\n      tag_25\n      jump\t// in\n    tag_33:\n      mload(0x40)\n      dup1\n      swap2\n      sub\n      swap1\n      return\n        /* \"contracts/NBCoin.sol\":823:907  function symbol() public view returns (string memory){... */\n    tag_8:\n      tag_34\n      tag_35\n      jump\t// in\n    tag_34:\n      mload(0x40)\n      tag_36\n      swap2\n      swap1\n      tag_15\n      jump\t// in\n    tag_36:\n      mload(0x40)\n      dup1\n      swap2\n      sub\n      swap1\n      return\n        /* \"contracts/NBCoin.sol\":1827:2083  function transfer(address receiver, uint256 amount) public returns (bool) {... */\n    tag_9:\n      tag_37\n      0x04\n      dup1\n      calldatasize\n      sub\n      dup2\n      add\n      swap1\n      tag_38\n      swap2\n      swap1\n      tag_18\n      jump\t// in\n    tag_38:\n      tag_39\n      jump\t// in\n    tag_37:\n      mload(0x40)\n      tag_40\n      swap2\n      swap1\n      tag_21\n      jump\t// in\n    tag_40:\n      mload(0x40)\n      dup1\n      swap2\n      sub\n      swap1\n      return\n        /* \"contracts/NBCoin.sol\":1408:1533  function allowance(address owner, address spender) public view returns (uint256){... */\n    tag_10:\n      tag_41\n      0x04\n      dup1\n      calldatasize\n      sub\n      dup2\n      add\n      swap1\n      tag_42\n      swap2\n      swap1\n      tag_43\n      jump\t// in\n    tag_42:\n      tag_44\n      jump\t// in\n    tag_41:\n      mload(0x40)\n      tag_45\n      swap2\n      swap1\n      tag_25\n      jump\t// in\n    tag_45:\n      mload(0x40)\n      dup1\n      swap2\n      sub\n      swap1\n      return\n        /* \"contracts/NBCoin.sol\":700:781  function name() public view returns (string memory){... */\n    tag_13:\n        /* \"contracts/NBCoin.sol\":737:750  string memory */\n      0x60\n        /* \"contracts/NBCoin.sol\":769:774  name_ */\n      mload(0x40)\n      dup1\n      0x40\n      add\n      0x40\n      mstore\n      dup1\n      0x07\n      dup2\n      mstore\n      0x20\n      add\n      0x4e4220436f696e00000000000000000000000000000000000000000000000000\n      dup2\n      mstore\n      pop\n        /* \"contracts/NBCoin.sol\":761:774  return  name_ */\n      swap1\n      pop\n        /* \"contracts/NBCoin.sol\":700:781  function name() public view returns (string memory){... */\n      swap1\n      jump\t// out\n        /* \"contracts/NBCoin.sol\":1605:1779  function approve(address spender, uint256 amount) public returns(bool) {... */\n    tag_19:\n        /* \"contracts/NBCoin.sol\":1670:1674  bool */\n      0x00\n        /* \"contracts/NBCoin.sol\":1716:1722  amount */\n      dup2\n        /* \"contracts/NBCoin.sol\":1685:1692  allowed */\n      0x01\n        /* \"contracts/NBCoin.sol\":1685:1704  allowed[msg.sender] */\n      0x00\n        /* \"contracts/NBCoin.sol\":1693:1703  msg.sender */\n      caller\n        /* \"contracts/NBCoin.sol\":1685:1704  allowed[msg.sender] */\n      0xffffffffffffffffffffffffffffffffffffffff\n      and\n      0xffffffffffffffffffffffffffffffffffffffff\n      and\n      dup2\n      mstore\n      0x20\n      add\n      swap1\n      dup2\n      mstore\n      0x20\n      add\n      0x00\n      keccak256\n        /* \"contracts/NBCoin.sol\":1685:1713  allowed[msg.sender][spender] */\n      0x00\n        /* \"contracts/NBCoin.sol\":1705:1712  spender */\n      dup6\n        /* \"contracts/NBCoin.sol\":1685:1713  allowed[msg.sender][spender] */\n      0xffffffffffffffffffffffffffffffffffffffff\n      and\n      0xffffffffffffffffffffffffffffffffffffffff\n      and\n      dup2\n      mstore\n      0x20\n      add\n      swap1\n      dup2\n      mstore\n      0x20\n      add\n      0x00\n      keccak256\n        /* \"contracts/NBCoin.sol\":1685:1722  allowed[msg.sender][spender] = amount */\n      dup2\n      swap1\n      sstore\n      pop\n        /* \"contracts/NBCoin.sol\":1757:1764  spender */\n      dup3\n        /* \"contracts/NBCoin.sol\":1736:1773  Approval(msg.sender, spender, amount) */\n      0xffffffffffffffffffffffffffffffffffffffff\n      and\n        /* \"contracts/NBCoin.sol\":1745:1755  msg.sender */\n      caller\n        /* \"contracts/NBCoin.sol\":1736:1773  Approval(msg.sender, spender, amount) */\n      0xffffffffffffffffffffffffffffffffffffffff\n      and\n      0x8c5be1e5ebec7d5bd14f71427d1e84f3dd0314c0f7b2291e5b200ac8c7c3b925\n        /* \"contracts/NBCoin.sol\":1766:1772  amount */\n      dup5\n        /* \"contracts/NBCoin.sol\":1736:1773  Approval(msg.sender, spender, amount) */\n      mload(0x40)\n      tag_48\n      swap2\n      swap1\n      tag_25\n      jump\t// in\n    tag_48:\n      mload(0x40)\n      dup1\n      swap2\n      sub\n      swap1\n      log3\n        /* \"contracts/NBCoin.sol\":1605:1779  function approve(address spender, uint256 amount) public returns(bool) {... */\n      swap3\n      swap2\n      pop\n      pop\n      jump\t// out\n        /* \"contracts/NBCoin.sol\":1055:1142  function totalSupply() public view returns (uint256) {... */\n    tag_23:\n        /* \"contracts/NBCoin.sol\":1099:1106  uint256 */\n      0x00\n        /* \"contracts/NBCoin.sol\":1123:1135  totalSupply_ */\n      sload(0x02)\n        /* \"contracts/NBCoin.sol\":1116:1135  return totalSupply_ */\n      swap1\n      pop\n        /* \"contracts/NBCoin.sol\":1055:1142  function totalSupply() public view returns (uint256) {... */\n      swap1\n      jump\t// out\n        /* \"contracts/NBCoin.sol\":942:1020  function decimals() public view returns (uint) {... */\n    tag_27:\n        /* \"contracts/NBCoin.sol\":983:987  uint */\n      0x00\n        /* \"contracts/NBCoin.sol\":386:388  18 */\n      0x12\n        /* \"contracts/NBCoin.sol\":997:1013  return decimals_ */\n      0xff\n      and\n      swap1\n      pop\n        /* \"contracts/NBCoin.sol\":942:1020  function decimals() public view returns (uint) {... */\n      swap1\n      jump\t// out\n        /* \"contracts/NBCoin.sol\":1228:1339  function balanceOf(address tokenOwner) public view returns (uint256) {... */\n    tag_32:\n        /* \"contracts/NBCoin.sol\":1288:1295  uint256 */\n      0x00\n        /* \"contracts/NBCoin.sol\":1313:1321  balances */\n      dup1\n        /* \"contracts/NBCoin.sol\":1313:1333  balances[tokenOwner] */\n      0x00\n        /* \"contracts/NBCoin.sol\":1322:1332  tokenOwner */\n      dup4\n        /* \"contracts/NBCoin.sol\":1313:1333  balances[tokenOwner] */\n      0xffffffffffffffffffffffffffffffffffffffff\n      and\n      0xffffffffffffffffffffffffffffffffffffffff\n      and\n      dup2\n      mstore\n      0x20\n      add\n      swap1\n      dup2\n      mstore\n      0x20\n      add\n      0x00\n      keccak256\n      sload\n        /* \"contracts/NBCoin.sol\":1306:1333  return balances[tokenOwner] */\n      swap1\n      pop\n        /* \"contracts/NBCoin.sol\":1228:1339  function balanceOf(address tokenOwner) public view returns (uint256) {... */\n      swap2\n      swap1\n      pop\n      jump\t// out\n        /* \"contracts/NBCoin.sol\":823:907  function symbol() public view returns (string memory){... */\n    tag_35:\n        /* \"contracts/NBCoin.sol\":862:875  string memory */\n      0x60\n        /* \"contracts/NBCoin.sol\":893:900  symbol_ */\n      mload(0x40)\n      dup1\n      0x40\n      add\n      0x40\n      mstore\n      dup1\n      0x03\n      dup2\n      mstore\n      0x20\n      add\n      0x4e424e0000000000000000000000000000000000000000000000000000000000\n      dup2\n      mstore\n      pop\n        /* \"contracts/NBCoin.sol\":886:900  return symbol_ */\n      swap1\n      pop\n        /* \"contracts/NBCoin.sol\":823:907  function symbol() public view returns (string memory){... */\n      swap1\n      jump\t// out\n        /* \"contracts/NBCoin.sol\":1827:2083  function transfer(address receiver, uint256 amount) public returns (bool) {... */\n    tag_39:\n        /* \"contracts/NBCoin.sol\":1895:1899  bool */\n      0x00\n        /* \"contracts/NBCoin.sol\":1928:1936  balances */\n      dup1\n        /* \"contracts/NBCoin.sol\":1928:1948  balances[msg.sender] */\n      0x00\n        /* \"contracts/NBCoin.sol\":1937:1947  msg.sender */\n      caller\n        /* \"contracts/NBCoin.sol\":1928:1948  balances[msg.sender] */\n      0xffffffffffffffffffffffffffffffffffffffff\n      and\n      0xffffffffffffffffffffffffffffffffffffffff\n      and\n      dup2\n      mstore\n      0x20\n      add\n      swap1\n      dup2\n      mstore\n      0x20\n      add\n      0x00\n      keccak256\n      sload\n        /* \"contracts/NBCoin.sol\":1918:1924  amount */\n      dup3\n        /* \"contracts/NBCoin.sol\":1918:1948  amount <= balances[msg.sender] */\n      gt\n      iszero\n        /* \"contracts/NBCoin.sol\":1910:1949  require(amount <= balances[msg.sender]) */\n      tag_54\n      jumpi\n      0x00\n      dup1\n      revert\n    tag_54:\n        /* \"contracts/NBCoin.sol\":1982:1988  amount */\n      dup2\n        /* \"contracts/NBCoin.sol\":1958:1966  balances */\n      0x00\n        /* \"contracts/NBCoin.sol\":1958:1978  balances[msg.sender] */\n      dup1\n        /* \"contracts/NBCoin.sol\":1967:1977  msg.sender */\n      caller\n        /* \"contracts/NBCoin.sol\":1958:1978  balances[msg.sender] */\n      0xffffffffffffffffffffffffffffffffffffffff\n      and\n      0xffffffffffffffffffffffffffffffffffffffff\n      and\n      dup2\n      mstore\n      0x20\n      add\n      swap1\n      dup2\n      mstore\n      0x20\n      add\n      0x00\n      keccak256\n      0x00\n        /* \"contracts/NBCoin.sol\":1958:1988  balances[msg.sender] -= amount */\n      dup3\n      dup3\n      sload\n      tag_55\n      swap2\n      swap1\n      tag_56\n      jump\t// in\n    tag_55:\n      swap3\n      pop\n      pop\n      dup2\n      swap1\n      sstore\n      pop\n        /* \"contracts/NBCoin.sol\":2019:2025  amount */\n      dup2\n        /* \"contracts/NBCoin.sol\":1997:2005  balances */\n      0x00\n        /* \"contracts/NBCoin.sol\":1997:2015  balances[receiver] */\n      dup1\n        /* \"contracts/NBCoin.sol\":2006:2014  receiver */\n      dup6\n        /* \"contracts/NBCoin.sol\":1997:2015  balances[receiver] */\n      0xffffffffffffffffffffffffffffffffffffffff\n      and\n      0xffffffffffffffffffffffffffffffffffffffff\n      and\n      dup2\n      mstore\n      0x20\n      add\n      swap1\n      dup2\n      mstore\n      0x20\n      add\n      0x00\n      keccak256\n      0x00\n        /* \"contracts/NBCoin.sol\":1997:2025  balances[receiver] += amount */\n      dup3\n      dup3\n      sload\n      tag_57\n      swap2\n      swap1\n      tag_58\n      jump\t// in\n    tag_57:\n      swap3\n      pop\n      pop\n      dup2\n      swap1\n      sstore\n      pop\n        /* \"contracts/NBCoin.sol\":2060:2068  receiver */\n      dup3\n        /* \"contracts/NBCoin.sol\":2039:2077  Transfer(msg.sender, receiver, amount) */\n      0xffffffffffffffffffffffffffffffffffffffff\n      and\n        /* \"contracts/NBCoin.sol\":2048:2058  msg.sender */\n      caller\n        /* \"contracts/NBCoin.sol\":2039:2077  Transfer(msg.sender, receiver, amount) */\n      0xffffffffffffffffffffffffffffffffffffffff\n      and\n      0xddf252ad1be2c89b69c2b068fc378daa952ba7f163c4a11628f55a4df523b3ef\n        /* \"contracts/NBCoin.sol\":2070:2076  amount */\n      dup5\n        /* \"contracts/NBCoin.sol\":2039:2077  Transfer(msg.sender, receiver, amount) */\n      mload(0x40)\n      tag_59\n      swap2\n      swap1\n      tag_25\n      jump\t// in\n    tag_59:\n      mload(0x40)\n      dup1\n      swap2\n      sub\n      swap1\n      log3\n        /* \"contracts/NBCoin.sol\":1827:2083  function transfer(address receiver, uint256 amount) public returns (bool) {... */\n      swap3\n      swap2\n      pop\n      pop\n      jump\t// out\n        /* \"contracts/NBCoin.sol\":1408:1533  function allowance(address owner, address spender) public view returns (uint256){... */\n    tag_44:\n        /* \"contracts/NBCoin.sol\":1480:1487  uint256 */\n      0x00\n        /* \"contracts/NBCoin.sol\":1504:1511  allowed */\n      0x01\n        /* \"contracts/NBCoin.sol\":1504:1518  allowed[owner] */\n      0x00\n        /* \"contracts/NBCoin.sol\":1512:1517  owner */\n      dup5\n        /* \"contracts/NBCoin.sol\":1504:1518  allowed[owner] */\n      0xffffffffffffffffffffffffffffffffffffffff\n      and\n      0xffffffffffffffffffffffffffffffffffffffff\n      and\n      dup2\n      mstore\n      0x20\n      add\n      swap1\n      dup2\n      mstore\n      0x20\n      add\n      0x00\n      keccak256\n        /* \"contracts/NBCoin.sol\":1504:1527  allowed[owner][spender] */\n      0x00\n        /* \"contracts/NBCoin.sol\":1519:1526  spender */\n      dup4\n        /* \"contracts/NBCoin.sol\":1504:1527  allowed[owner][spender] */\n      0xffffffffffffffffffffffffffffffffffffffff\n      and\n      0xffffffffffffffffffffffffffffffffffffffff\n      and\n      dup2\n      mstore\n      0x20\n      add\n      swap1\n      dup2\n      mstore\n      0x20\n      add\n      0x00\n      keccak256\n      sload\n        /* \"contracts/NBCoin.sol\":1497:1527  return allowed[owner][spender] */\n      swap1\n      pop\n        /* \"contracts/NBCoin.sol\":1408:1533  function allowance(address owner, address spender) public view returns (uint256){... */\n      swap3\n      swap2\n      pop\n      pop\n      jump\t// out\n        /* \"#utility.yul\":7:146   */\n    tag_62:\n        /* \"#utility.yul\":53:58   */\n      0x00\n        /* \"#utility.yul\":91:97   */\n      dup2\n        /* \"#utility.yul\":78:98   */\n      calldataload\n        /* \"#utility.yul\":69:98   */\n      swap1\n      pop\n        /* \"#utility.yul\":107:140   */\n      tag_64\n        /* \"#utility.yul\":134:139   */\n      dup2\n        /* \"#utility.yul\":107:140   */\n      tag_65\n      jump\t// in\n    tag_64:\n        /* \"#utility.yul\":7:146   */\n      swap3\n      swap2\n      pop\n      pop\n      jump\t// out\n        /* \"#utility.yul\":152:291   */\n    tag_66:\n        /* \"#utility.yul\":198:203   */\n      0x00\n        /* \"#utility.yul\":236:242   */\n      dup2\n        /* \"#utility.yul\":223:243   */\n      calldataload\n        /* \"#utility.yul\":214:243   */\n      swap1\n      pop\n        /* \"#utility.yul\":252:285   */\n      tag_68\n        /* \"#utility.yul\":279:284   */\n      dup2\n        /* \"#utility.yul\":252:285   */\n      tag_69\n      jump\t// in\n    tag_68:\n        /* \"#utility.yul\":152:291   */\n      swap3\n      swap2\n      pop\n      pop\n      jump\t// out\n        /* \"#utility.yul\":297:626   */\n    tag_31:\n        /* \"#utility.yul\":356:362   */\n      0x00\n        /* \"#utility.yul\":405:407   */\n      0x20\n        /* \"#utility.yul\":393:402   */\n      dup3\n        /* \"#utility.yul\":384:391   */\n      dup5\n        /* \"#utility.yul\":380:403   */\n      sub\n        /* \"#utility.yul\":376:408   */\n      slt\n        /* \"#utility.yul\":373:492   */\n      iszero\n      tag_71\n      jumpi\n        /* \"#utility.yul\":411:490   */\n      tag_72\n      tag_73\n      jump\t// in\n    tag_72:\n        /* \"#utility.yul\":373:492   */\n    tag_71:\n        /* \"#utility.yul\":531:532   */\n      0x00\n        /* \"#utility.yul\":556:609   */\n      tag_74\n        /* \"#utility.yul\":601:608   */\n      dup5\n        /* \"#utility.yul\":592:598   */\n      dup3\n        /* \"#utility.yul\":581:590   */\n      dup6\n        /* \"#utility.yul\":577:599   */\n      add\n        /* \"#utility.yul\":556:609   */\n      tag_62\n      jump\t// in\n    tag_74:\n        /* \"#utility.yul\":546:609   */\n      swap2\n      pop\n        /* \"#utility.yul\":502:619   */\n      pop\n        /* \"#utility.yul\":297:626   */\n      swap3\n      swap2\n      pop\n      pop\n      jump\t// out\n        /* \"#utility.yul\":632:1106   */\n    tag_43:\n        /* \"#utility.yul\":700:706   */\n      0x00\n        /* \"#utility.yul\":708:714   */\n      dup1\n        /* \"#utility.yul\":757:759   */\n      0x40\n        /* \"#utility.yul\":745:754   */\n      dup4\n        /* \"#utility.yul\":736:743   */\n      dup6\n        /* \"#utility.yul\":732:755   */\n      sub\n        /* \"#utility.yul\":728:760   */\n      slt\n        /* \"#utility.yul\":725:844   */\n      iszero\n      tag_76\n      jumpi\n        /* \"#utility.yul\":763:842   */\n      tag_77\n      tag_73\n      jump\t// in\n    tag_77:\n        /* \"#utility.yul\":725:844   */\n    tag_76:\n        /* \"#utility.yul\":883:884   */\n      0x00\n        /* \"#utility.yul\":908:961   */\n      tag_78\n        /* \"#utility.yul\":953:960   */\n      dup6\n        /* \"#utility.yul\":944:950   */\n      dup3\n        /* \"#utility.yul\":933:942   */\n      dup7\n        /* \"#utility.yul\":929:951   */\n      add\n        /* \"#utility.yul\":908:961   */\n      tag_62\n      jump\t// in\n    tag_78:\n        /* \"#utility.yul\":898:961   */\n      swap3\n      pop\n        /* \"#utility.yul\":854:971   */\n      pop\n        /* \"#utility.yul\":1010:1012   */\n      0x20\n        /* \"#utility.yul\":1036:1089   */\n      tag_79\n        /* \"#utility.yul\":1081:1088   */\n      dup6\n        /* \"#utility.yul\":1072:1078   */\n      dup3\n        /* \"#utility.yul\":1061:1070   */\n      dup7\n        /* \"#utility.yul\":1057:1079   */\n      add\n        /* \"#utility.yul\":1036:1089   */\n      tag_62\n      jump\t// in\n    tag_79:\n        /* \"#utility.yul\":1026:1089   */\n      swap2\n      pop\n        /* \"#utility.yul\":981:1099   */\n      pop\n        /* \"#utility.yul\":632:1106   */\n      swap3\n      pop\n      swap3\n      swap1\n      pop\n      jump\t// out\n        /* \"#utility.yul\":1112:1586   */\n    tag_18:\n        /* \"#utility.yul\":1180:1186   */\n      0x00\n        /* \"#utility.yul\":1188:1194   */\n      dup1\n        /* \"#utility.yul\":1237:1239   */\n      0x40\n        /* \"#utility.yul\":1225:1234   */\n      dup4\n        /* \"#utility.yul\":1216:1223   */\n      dup6\n        /* \"#utility.yul\":1212:1235   */\n      sub\n        /* \"#utility.yul\":1208:1240   */\n      slt\n        /* \"#utility.yul\":1205:1324   */\n      iszero\n      tag_81\n      jumpi\n        /* \"#utility.yul\":1243:1322   */\n      tag_82\n      tag_73\n      jump\t// in\n    tag_82:\n        /* \"#utility.yul\":1205:1324   */\n    tag_81:\n        /* \"#utility.yul\":1363:1364   */\n      0x00\n        /* \"#utility.yul\":1388:1441   */\n      tag_83\n        /* \"#utility.yul\":1433:1440   */\n      dup6\n        /* \"#utility.yul\":1424:1430   */\n      dup3\n        /* \"#utility.yul\":1413:1422   */\n      dup7\n        /* \"#utility.yul\":1409:1431   */\n      add\n        /* \"#utility.yul\":1388:1441   */\n      tag_62\n      jump\t// in\n    tag_83:\n        /* \"#utility.yul\":1378:1441   */\n      swap3\n      pop\n        /* \"#utility.yul\":1334:1451   */\n      pop\n        /* \"#utility.yul\":1490:1492   */\n      0x20\n        /* \"#utility.yul\":1516:1569   */\n      tag_84\n        /* \"#utility.yul\":1561:1568   */\n      dup6\n        /* \"#utility.yul\":1552:1558   */\n      dup3\n        /* \"#utility.yul\":1541:1550   */\n      dup7\n        /* \"#utility.yul\":1537:1559   */\n      add\n        /* \"#utility.yul\":1516:1569   */\n      tag_66\n      jump\t// in\n    tag_84:\n        /* \"#utility.yul\":1506:1569   */\n      swap2\n      pop\n        /* \"#utility.yul\":1461:1579   */\n      pop\n        /* \"#utility.yul\":1112:1586   */\n      swap3\n      pop\n      swap3\n      swap1\n      pop\n      jump\t// out\n        /* \"#utility.yul\":1592:1701   */\n    tag_85:\n        /* \"#utility.yul\":1673:1694   */\n      tag_87\n        /* \"#utility.yul\":1688:1693   */\n      dup2\n        /* \"#utility.yul\":1673:1694   */\n      tag_88\n      jump\t// in\n    tag_87:\n        /* \"#utility.yul\":1668:1671   */\n      dup3\n        /* \"#utility.yul\":1661:1695   */\n      mstore\n        /* \"#utility.yul\":1592:1701   */\n      pop\n      pop\n      jump\t// out\n        /* \"#utility.yul\":1707:2071   */\n    tag_89:\n        /* \"#utility.yul\":1795:1798   */\n      0x00\n        /* \"#utility.yul\":1823:1862   */\n      tag_91\n        /* \"#utility.yul\":1856:1861   */\n      dup3\n        /* \"#utility.yul\":1823:1862   */\n      tag_92\n      jump\t// in\n    tag_91:\n        /* \"#utility.yul\":1878:1949   */\n      tag_93\n        /* \"#utility.yul\":1942:1948   */\n      dup2\n        /* \"#utility.yul\":1937:1940   */\n      dup6\n        /* \"#utility.yul\":1878:1949   */\n      tag_94\n      jump\t// in\n    tag_93:\n        /* \"#utility.yul\":1871:1949   */\n      swap4\n      pop\n        /* \"#utility.yul\":1958:2010   */\n      tag_95\n        /* \"#utility.yul\":2003:2009   */\n      dup2\n        /* \"#utility.yul\":1998:2001   */\n      dup6\n        /* \"#utility.yul\":1991:1995   */\n      0x20\n        /* \"#utility.yul\":1984:1989   */\n      dup7\n        /* \"#utility.yul\":1980:1996   */\n      add\n        /* \"#utility.yul\":1958:2010   */\n      tag_96\n      jump\t// in\n    tag_95:\n        /* \"#utility.yul\":2035:2064   */\n      tag_97\n        /* \"#utility.yul\":2057:2063   */\n      dup2\n        /* \"#utility.yul\":2035:2064   */\n      tag_98\n      jump\t// in\n    tag_97:\n        /* \"#utility.yul\":2030:2033   */\n      dup5\n        /* \"#utility.yul\":2026:2065   */\n      add\n        /* \"#utility.yul\":2019:2065   */\n      swap2\n      pop\n        /* \"#utility.yul\":1799:2071   */\n      pop\n        /* \"#utility.yul\":1707:2071   */\n      swap3\n      swap2\n      pop\n      pop\n      jump\t// out\n        /* \"#utility.yul\":2077:2195   */\n    tag_99:\n        /* \"#utility.yul\":2164:2188   */\n      tag_101\n        /* \"#utility.yul\":2182:2187   */\n      dup2\n        /* \"#utility.yul\":2164:2188   */\n      tag_102\n      jump\t// in\n    tag_101:\n        /* \"#utility.yul\":2159:2162   */\n      dup3\n        /* \"#utility.yul\":2152:2189   */\n      mstore\n        /* \"#utility.yul\":2077:2195   */\n      pop\n      pop\n      jump\t// out\n        /* \"#utility.yul\":2201:2411   */\n    tag_21:\n        /* \"#utility.yul\":2288:2292   */\n      0x00\n        /* \"#utility.yul\":2326:2328   */\n      0x20\n        /* \"#utility.yul\":2315:2324   */\n      dup3\n        /* \"#utility.yul\":2311:2329   */\n      add\n        /* \"#utility.yul\":2303:2329   */\n      swap1\n      pop\n        /* \"#utility.yul\":2339:2404   */\n      tag_104\n        /* \"#utility.yul\":2401:2402   */\n      0x00\n        /* \"#utility.yul\":2390:2399   */\n      dup4\n        /* \"#utility.yul\":2386:2403   */\n      add\n        /* \"#utility.yul\":2377:2383   */\n      dup5\n        /* \"#utility.yul\":2339:2404   */\n      tag_85\n      jump\t// in\n    tag_104:\n        /* \"#utility.yul\":2201:2411   */\n      swap3\n      swap2\n      pop\n      pop\n      jump\t// out\n        /* \"#utility.yul\":2417:2730   */\n    tag_15:\n        /* \"#utility.yul\":2530:2534   */\n      0x00\n        /* \"#utility.yul\":2568:2570   */\n      0x20\n        /* \"#utility.yul\":2557:2566   */\n      dup3\n        /* \"#utility.yul\":2553:2571   */\n      add\n        /* \"#utility.yul\":2545:2571   */\n      swap1\n      pop\n        /* \"#utility.yul\":2617:2626   */\n      dup2\n        /* \"#utility.yul\":2611:2615   */\n      dup2\n        /* \"#utility.yul\":2607:2627   */\n      sub\n        /* \"#utility.yul\":2603:2604   */\n      0x00\n        /* \"#utility.yul\":2592:2601   */\n      dup4\n        /* \"#utility.yul\":2588:2605   */\n      add\n        /* \"#utility.yul\":2581:2628   */\n      mstore\n        /* \"#utility.yul\":2645:2723   */\n      tag_106\n        /* \"#utility.yul\":2718:2722   */\n      dup2\n        /* \"#utility.yul\":2709:2715   */\n      dup5\n        /* \"#utility.yul\":2645:2723   */\n      tag_89\n      jump\t// in\n    tag_106:\n        /* \"#utility.yul\":2637:2723   */\n      swap1\n      pop\n        /* \"#utility.yul\":2417:2730   */\n      swap3\n      swap2\n      pop\n      pop\n      jump\t// out\n        /* \"#utility.yul\":2736:2958   */\n    tag_25:\n        /* \"#utility.yul\":2829:2833   */\n      0x00\n        /* \"#utility.yul\":2867:2869   */\n      0x20\n        /* \"#utility.yul\":2856:2865   */\n      dup3\n        /* \"#utility.yul\":2852:2870   */\n      add\n        /* \"#utility.yul\":2844:2870   */\n      swap1\n      pop\n        /* \"#utility.yul\":2880:2951   */\n      tag_108\n        /* \"#utility.yul\":2948:2949   */\n      0x00\n        /* \"#utility.yul\":2937:2946   */\n      dup4\n        /* \"#utility.yul\":2933:2950   */\n      add\n        /* \"#utility.yul\":2924:2930   */\n      dup5\n        /* \"#utility.yul\":2880:2951   */\n      tag_99\n      jump\t// in\n    tag_108:\n        /* \"#utility.yul\":2736:2958   */\n      swap3\n      swap2\n      pop\n      pop\n      jump\t// out\n        /* \"#utility.yul\":3045:3144   */\n    tag_92:\n        /* \"#utility.yul\":3097:3103   */\n      0x00\n        /* \"#utility.yul\":3131:3136   */\n      dup2\n        /* \"#utility.yul\":3125:3137   */\n      mload\n        /* \"#utility.yul\":3115:3137   */\n      swap1\n      pop\n        /* \"#utility.yul\":3045:3144   */\n      swap2\n      swap1\n      pop\n      jump\t// out\n        /* \"#utility.yul\":3150:3319   */\n    tag_94:\n        /* \"#utility.yul\":3234:3245   */\n      0x00\n        /* \"#utility.yul\":3268:3274   */\n      dup3\n        /* \"#utility.yul\":3263:3266   */\n      dup3\n        /* \"#utility.yul\":3256:3275   */\n      mstore\n        /* \"#utility.yul\":3308:3312   */\n      0x20\n        /* \"#utility.yul\":3303:3306   */\n      dup3\n        /* \"#utility.yul\":3299:3313   */\n      add\n        /* \"#utility.yul\":3284:3313   */\n      swap1\n      pop\n        /* \"#utility.yul\":3150:3319   */\n      swap3\n      swap2\n      pop\n      pop\n      jump\t// out\n        /* \"#utility.yul\":3325:3630   */\n    tag_58:\n        /* \"#utility.yul\":3365:3368   */\n      0x00\n        /* \"#utility.yul\":3384:3404   */\n      tag_114\n        /* \"#utility.yul\":3402:3403   */\n      dup3\n        /* \"#utility.yul\":3384:3404   */\n      tag_102\n      jump\t// in\n    tag_114:\n        /* \"#utility.yul\":3379:3404   */\n      swap2\n      pop\n        /* \"#utility.yul\":3418:3438   */\n      tag_115\n        /* \"#utility.yul\":3436:3437   */\n      dup4\n        /* \"#utility.yul\":3418:3438   */\n      tag_102\n      jump\t// in\n    tag_115:\n        /* \"#utility.yul\":3413:3438   */\n      swap3\n      pop\n        /* \"#utility.yul\":3572:3573   */\n      dup3\n        /* \"#utility.yul\":3504:3570   */\n      0xffffffffffffffffffffffffffffffffffffffffffffffffffffffffffffffff\n        /* \"#utility.yul\":3500:3574   */\n      sub\n        /* \"#utility.yul\":3497:3498   */\n      dup3\n        /* \"#utility.yul\":3494:3575   */\n      gt\n        /* \"#utility.yul\":3491:3598   */\n      iszero\n      tag_116\n      jumpi\n        /* \"#utility.yul\":3578:3596   */\n      tag_117\n      tag_118\n      jump\t// in\n    tag_117:\n        /* \"#utility.yul\":3491:3598   */\n    tag_116:\n        /* \"#utility.yul\":3622:3623   */\n      dup3\n        /* \"#utility.yul\":3619:3620   */\n      dup3\n        /* \"#utility.yul\":3615:3624   */\n      add\n        /* \"#utility.yul\":3608:3624   */\n      swap1\n      pop\n        /* \"#utility.yul\":3325:3630   */\n      swap3\n      swap2\n      pop\n      pop\n      jump\t// out\n        /* \"#utility.yul\":3636:3827   */\n    tag_56:\n        /* \"#utility.yul\":3676:3680   */\n      0x00\n        /* \"#utility.yul\":3696:3716   */\n      tag_120\n        /* \"#utility.yul\":3714:3715   */\n      dup3\n        /* \"#utility.yul\":3696:3716   */\n      tag_102\n      jump\t// in\n    tag_120:\n        /* \"#utility.yul\":3691:3716   */\n      swap2\n      pop\n        /* \"#utility.yul\":3730:3750   */\n      tag_121\n        /* \"#utility.yul\":3748:3749   */\n      dup4\n        /* \"#utility.yul\":3730:3750   */\n      tag_102\n      jump\t// in\n    tag_121:\n        /* \"#utility.yul\":3725:3750   */\n      swap3\n      pop\n        /* \"#utility.yul\":3769:3770   */\n      dup3\n        /* \"#utility.yul\":3766:3767   */\n      dup3\n        /* \"#utility.yul\":3763:3771   */\n      lt\n        /* \"#utility.yul\":3760:3794   */\n      iszero\n      tag_122\n      jumpi\n        /* \"#utility.yul\":3774:3792   */\n      tag_123\n      tag_118\n      jump\t// in\n    tag_123:\n        /* \"#utility.yul\":3760:3794   */\n    tag_122:\n        /* \"#utility.yul\":3819:3820   */\n      dup3\n        /* \"#utility.yul\":3816:3817   */\n      dup3\n        /* \"#utility.yul\":3812:3821   */\n      sub\n        /* \"#utility.yul\":3804:3821   */\n      swap1\n      pop\n        /* \"#utility.yul\":3636:3827   */\n      swap3\n      swap2\n      pop\n      pop\n      jump\t// out\n        /* \"#utility.yul\":3833:3929   */\n    tag_124:\n        /* \"#utility.yul\":3870:3877   */\n      0x00\n        /* \"#utility.yul\":3899:3923   */\n      tag_126\n        /* \"#utility.yul\":3917:3922   */\n      dup3\n        /* \"#utility.yul\":3899:3923   */\n      tag_127\n      jump\t// in\n    tag_126:\n        /* \"#utility.yul\":3888:3923   */\n      swap1\n      pop\n        /* \"#utility.yul\":3833:3929   */\n      swap2\n      swap1\n      pop\n      jump\t// out\n        /* \"#utility.yul\":3935:4025   */\n    tag_88:\n        /* \"#utility.yul\":3969:3976   */\n      0x00\n        /* \"#utility.yul\":4012:4017   */\n      dup2\n        /* \"#utility.yul\":4005:4018   */\n      iszero\n        /* \"#utility.yul\":3998:4019   */\n      iszero\n        /* \"#utility.yul\":3987:4019   */\n      swap1\n      pop\n        /* \"#utility.yul\":3935:4025   */\n      swap2\n      swap1\n      pop\n      jump\t// out\n        /* \"#utility.yul\":4031:4157   */\n    tag_127:\n        /* \"#utility.yul\":4068:4075   */\n      0x00\n        /* \"#utility.yul\":4108:4150   */\n      0xffffffffffffffffffffffffffffffffffffffff\n        /* \"#utility.yul\":4101:4106   */\n      dup3\n        /* \"#utility.yul\":4097:4151   */\n      and\n        /* \"#utility.yul\":4086:4151   */\n      swap1\n      pop\n        /* \"#utility.yul\":4031:4157   */\n      swap2\n      swap1\n      pop\n      jump\t// out\n        /* \"#utility.yul\":4163:4240   */\n    tag_102:\n        /* \"#utility.yul\":4200:4207   */\n      0x00\n        /* \"#utility.yul\":4229:4234   */\n      dup2\n        /* \"#utility.yul\":4218:4234   */\n      swap1\n      pop\n        /* \"#utility.yul\":4163:4240   */\n      swap2\n      swap1\n      pop\n      jump\t// out\n        /* \"#utility.yul\":4246:4553   */\n    tag_96:\n        /* \"#utility.yul\":4314:4315   */\n      0x00\n        /* \"#utility.yul\":4324:4437   */\n    tag_132:\n        /* \"#utility.yul\":4338:4344   */\n      dup4\n        /* \"#utility.yul\":4335:4336   */\n      dup2\n        /* \"#utility.yul\":4332:4345   */\n      lt\n        /* \"#utility.yul\":4324:4437   */\n      iszero\n      tag_134\n      jumpi\n        /* \"#utility.yul\":4423:4424   */\n      dup1\n        /* \"#utility.yul\":4418:4421   */\n      dup3\n        /* \"#utility.yul\":4414:4425   */\n      add\n        /* \"#utility.yul\":4408:4426   */\n      mload\n        /* \"#utility.yul\":4404:4405   */\n      dup2\n        /* \"#utility.yul\":4399:4402   */\n      dup5\n        /* \"#utility.yul\":4395:4406   */\n      add\n        /* \"#utility.yul\":4388:4427   */\n      mstore\n        /* \"#utility.yul\":4360:4362   */\n      0x20\n        /* \"#utility.yul\":4357:4358   */\n      dup2\n        /* \"#utility.yul\":4353:4363   */\n      add\n        /* \"#utility.yul\":4348:4363   */\n      swap1\n      pop\n        /* \"#utility.yul\":4324:4437   */\n      jump(tag_132)\n    tag_134:\n        /* \"#utility.yul\":4455:4461   */\n      dup4\n        /* \"#utility.yul\":4452:4453   */\n      dup2\n        /* \"#utility.yul\":4449:4462   */\n      gt\n        /* \"#utility.yul\":4446:4547   */\n      iszero\n      tag_135\n      jumpi\n        /* \"#utility.yul\":4535:4536   */\n      0x00\n        /* \"#utility.yul\":4526:4532   */\n      dup5\n        /* \"#utility.yul\":4521:4524   */\n      dup5\n        /* \"#utility.yul\":4517:4533   */\n      add\n        /* \"#utility.yul\":4510:4537   */\n      mstore\n        /* \"#utility.yul\":4446:4547   */\n    tag_135:\n        /* \"#utility.yul\":4295:4553   */\n      pop\n        /* \"#utility.yul\":4246:4553   */\n      pop\n      pop\n      pop\n      jump\t// out\n        /* \"#utility.yul\":4559:4739   */\n    tag_118:\n        /* \"#utility.yul\":4607:4684   */\n      0x4e487b7100000000000000000000000000000000000000000000000000000000\n        /* \"#utility.yul\":4604:4605   */\n      0x00\n        /* \"#utility.yul\":4597:4685   */\n      mstore\n        /* \"#utility.yul\":4704:4708   */\n      0x11\n        /* \"#utility.yul\":4701:4702   */\n      0x04\n        /* \"#utility.yul\":4694:4709   */\n      mstore\n        /* \"#utility.yul\":4728:4732   */\n      0x24\n        /* \"#utility.yul\":4725:4726   */\n      0x00\n        /* \"#utility.yul\":4718:4733   */\n      revert\n        /* \"#utility.yul\":4868:4985   */\n    tag_73:\n        /* \"#utility.yul\":4977:4978   */\n      0x00\n        /* \"#utility.yul\":4974:4975   */\n      dup1\n        /* \"#utility.yul\":4967:4979   */\n      revert\n        /* \"#utility.yul\":4991:5093   */\n    tag_98:\n        /* \"#utility.yul\":5032:5038   */\n      0x00\n        /* \"#utility.yul\":5083:5085   */\n      0x1f\n        /* \"#utility.yul\":5079:5086   */\n      not\n        /* \"#utility.yul\":5074:5076   */\n      0x1f\n        /* \"#utility.yul\":5067:5072   */\n      dup4\n        /* \"#utility.yul\":5063:5077   */\n      add\n        /* \"#utility.yul\":5059:5087   */\n      and\n        /* \"#utility.yul\":5049:5087   */\n      swap1\n      pop\n        /* \"#utility.yul\":4991:5093   */\n      swap2\n      swap1\n      pop\n      jump\t// out\n        /* \"#utility.yul\":5099:5221   */\n    tag_65:\n        /* \"#utility.yul\":5172:5196   */\n      tag_142\n        /* \"#utility.yul\":5190:5195   */\n      dup2\n        /* \"#utility.yul\":5172:5196   */\n      tag_124\n      jump\t// in\n    tag_142:\n        /* \"#utility.yul\":5165:5170   */\n      dup2\n        /* \"#utility.yul\":5162:5197   */\n      eq\n        /* \"#utility.yul\":5152:5215   */\n      tag_143\n      jumpi\n        /* \"#utility.yul\":5211:5212   */\n      0x00\n        /* \"#utility.yul\":5208:5209   */\n      dup1\n        /* \"#utility.yul\":5201:5213   */\n      revert\n        /* \"#utility.yul\":5152:5215   */\n    tag_143:\n        /* \"#utility.yul\":5099:5221   */\n      pop\n      jump\t// out\n        /* \"#utility.yul\":5227:5349   */\n    tag_69:\n        /* \"#utility.yul\":5300:5324   */\n      tag_145\n        /* \"#utility.yul\":5318:5323   */\n      dup2\n        /* \"#utility.yul\":5300:5324   */\n      tag_102\n      jump\t// in\n    tag_145:\n        /* \"#utility.yul\":5293:5298   */\n      dup2\n        /* \"#utility.yul\":5290:5325   */\n      eq\n        /* \"#utility.yul\":5280:5343   */\n      tag_146\n      jumpi\n        /* \"#utility.yul\":5339:5340   */\n      0x00\n        /* \"#utility.yul\":5336:5337   */\n      dup1\n        /* \"#utility.yul\":5329:5341   */\n      revert\n        /* \"#utility.yul\":5280:5343   */\n    tag_146:\n        /* \"#utility.yul\":5227:5349   */\n      pop\n      jump\t// out\n\n    auxdata: 0xa2646970667358221220c321f375f64af48d6699032a64c7a17d19a036f75d0981263ac0d9ce0d9b0e7f64736f6c63430008070033\n}\n",
				"bytecode": {
					"linkReferences": {},
					"object": "608060405234801561001057600080fd5b506040516109bf3803806109bf83398181016040528101906100329190610099565b806002819055506002546000803373ffffffffffffffffffffffffffffffffffffffff1673ffffffffffffffffffffffffffffffffffffffff16815260200190815260200160002081905550506100ec565b600081519050610093816100d5565b92915050565b6000602082840312156100af576100ae6100d0565b5b60006100bd84828501610084565b91505092915050565b6000819050919050565b600080fd5b6100de816100c6565b81146100e957600080fd5b50565b6108c4806100fb6000396000f3fe608060405234801561001057600080fd5b50600436106100885760003560e01c806370a082311161005b57806370a082311461011757806395d89b4114610147578063a9059cbb14610165578063dd62ed3e1461019557610088565b806306fdde031461008d578063095ea7b3146100ab57806318160ddd146100db578063313ce567146100f9575b600080fd5b6100956101c5565b6040516100a291906106bd565b60405180910390f35b6100c560048036038101906100c0919061060b565b610202565b6040516100d291906106a2565b60405180910390f35b6100e36102f0565b6040516100f091906106df565b60405180910390f35b6101016102fa565b60405161010e91906106df565b60405180910390f35b610131600480360381019061012c919061059e565b610306565b60405161013e91906106df565b60405180910390f35b61014f61034e565b60405161015c91906106bd565b60405180910390f35b61017f600480360381019061017a919061060b565b61038b565b60405161018c91906106a2565b60405180910390f35b6101af60048036038101906101aa91906105cb565b6104ed565b6040516101bc91906106df565b60405180910390f35b60606040518060400160405280600781526020017f4e4220436f696e00000000000000000000000000000000000000000000000000815250905090565b600081600160003373ffffffffffffffffffffffffffffffffffffffff1673ffffffffffffffffffffffffffffffffffffffff16815260200190815260200160002060008573ffffffffffffffffffffffffffffffffffffffff1673ffffffffffffffffffffffffffffffffffffffff168152602001908152602001600020819055508273ffffffffffffffffffffffffffffffffffffffff163373ffffffffffffffffffffffffffffffffffffffff167f8c5be1e5ebec7d5bd14f71427d1e84f3dd0314c0f7b2291e5b200ac8c7c3b925846040516102e291906106df565b60405180910390a392915050565b6000600254905090565b6000601260ff16905090565b60008060008373ffffffffffffffffffffffffffffffffffffffff1673ffffffffffffffffffffffffffffffffffffffff168152602001908152602001600020549050919050565b60606040518060400160405280600381526020017f4e424e0000000000000000000000000000000000000000000000000000000000815250905090565b60008060003373ffffffffffffffffffffffffffffffffffffffff1673ffffffffffffffffffffffffffffffffffffffff168152602001908152602001600020548211156103d857600080fd5b816000803373ffffffffffffffffffffffffffffffffffffffff1673ffffffffffffffffffffffffffffffffffffffff1681526020019081526020016000206000828254610426919061076c565b92505081905550816000808573ffffffffffffffffffffffffffffffffffffffff1673ffffffffffffffffffffffffffffffffffffffff168152602001908152602001600020600082825461047b9190610716565b925050819055508273ffffffffffffffffffffffffffffffffffffffff163373ffffffffffffffffffffffffffffffffffffffff167fddf252ad1be2c89b69c2b068fc378daa952ba7f163c4a11628f55a4df523b3ef846040516104df91906106df565b60405180910390a392915050565b6000600160008473ffffffffffffffffffffffffffffffffffffffff1673ffffffffffffffffffffffffffffffffffffffff16815260200190815260200160002060008373ffffffffffffffffffffffffffffffffffffffff1673ffffffffffffffffffffffffffffffffffffffff16815260200190815260200160002054905092915050565b60008135905061058381610860565b92915050565b60008135905061059881610877565b92915050565b6000602082840312156105b4576105b361084a565b5b60006105c284828501610574565b91505092915050565b600080604083850312156105e2576105e161084a565b5b60006105f085828601610574565b925050602061060185828601610574565b9150509250929050565b600080604083850312156106225761062161084a565b5b600061063085828601610574565b925050602061064185828601610589565b9150509250929050565b610654816107b2565b82525050565b6000610665826106fa565b61066f8185610705565b935061067f8185602086016107e8565b6106888161084f565b840191505092915050565b61069c816107de565b82525050565b60006020820190506106b7600083018461064b565b92915050565b600060208201905081810360008301526106d7818461065a565b905092915050565b60006020820190506106f46000830184610693565b92915050565b600081519050919050565b600082825260208201905092915050565b6000610721826107de565b915061072c836107de565b9250827fffffffffffffffffffffffffffffffffffffffffffffffffffffffffffffffff038211156107615761076061081b565b5b828201905092915050565b6000610777826107de565b9150610782836107de565b9250828210156107955761079461081b565b5b828203905092915050565b60006107ab826107be565b9050919050565b60008115159050919050565b600073ffffffffffffffffffffffffffffffffffffffff82169050919050565b6000819050919050565b60005b838110156108065780820151818401526020810190506107eb565b83811115610815576000848401525b50505050565b7f4e487b7100000000000000000000000000000000000000000000000000000000600052601160045260246000fd5b600080fd5b6000601f19601f8301169050919050565b610869816107a0565b811461087457600080fd5b50565b610880816107de565b811461088b57600080fd5b5056fea2646970667358221220c321f375f64af48d6699032a64c7a17d19a036f75d0981263ac0d9ce0d9b0e7f64736f6c63430008070033",
					"opcodes": "PUSH1 0x80 PUSH1 0x40 MSTORE CALLVALUE DUP1 ISZERO PUSH2 0x10 JUMPI PUSH1 0x0 DUP1 REVERT JUMPDEST POP PUSH1 0x40 MLOAD PUSH2 0x9BF CODESIZE SUB DUP1 PUSH2 0x9BF DUP4 CODECOPY DUP2 DUP2 ADD PUSH1 0x40 MSTORE DUP2 ADD SWAP1 PUSH2 0x32 SWAP2 SWAP1 PUSH2 0x99 JUMP JUMPDEST DUP1 PUSH1 0x2 DUP2 SWAP1 SSTORE POP PUSH1 0x2 SLOAD PUSH1 0x0 DUP1 CALLER PUSH20 0xFFFFFFFFFFFFFFFFFFFFFFFFFFFFFFFFFFFFFFFF AND PUSH20 0xFFFFFFFFFFFFFFFFFFFFFFFFFFFFFFFFFFFFFFFF AND DUP2 MSTORE PUSH1 0x20 ADD SWAP1 DUP2 MSTORE PUSH1 0x20 ADD PUSH1 0x0 KECCAK256 DUP2 SWAP1 SSTORE POP POP PUSH2 0xEC JUMP JUMPDEST PUSH1 0x0 DUP2 MLOAD SWAP1 POP PUSH2 0x93 DUP2 PUSH2 0xD5 JUMP JUMPDEST SWAP3 SWAP2 POP POP JUMP JUMPDEST PUSH1 0x0 PUSH1 0x20 DUP3 DUP5 SUB SLT ISZERO PUSH2 0xAF JUMPI PUSH2 0xAE PUSH2 0xD0 JUMP JUMPDEST JUMPDEST PUSH1 0x0 PUSH2 0xBD DUP5 DUP3 DUP6 ADD PUSH2 0x84 JUMP JUMPDEST SWAP2 POP POP SWAP3 SWAP2 POP POP JUMP JUMPDEST PUSH1 0x0 DUP2 SWAP1 POP SWAP2 SWAP1 POP JUMP JUMPDEST PUSH1 0x0 DUP1 REVERT JUMPDEST PUSH2 0xDE DUP2 PUSH2 0xC6 JUMP JUMPDEST DUP2 EQ PUSH2 0xE9 JUMPI PUSH1 0x0 DUP1 REVERT JUMPDEST POP JUMP JUMPDEST PUSH2 0x8C4 DUP1 PUSH2 0xFB PUSH1 0x0 CODECOPY PUSH1 0x0 RETURN INVALID PUSH1 0x80 PUSH1 0x40 MSTORE CALLVALUE DUP1 ISZERO PUSH2 0x10 JUMPI PUSH1 0x0 DUP1 REVERT JUMPDEST POP PUSH1 0x4 CALLDATASIZE LT PUSH2 0x88 JUMPI PUSH1 0x0 CALLDATALOAD PUSH1 0xE0 SHR DUP1 PUSH4 0x70A08231 GT PUSH2 0x5B JUMPI DUP1 PUSH4 0x70A08231 EQ PUSH2 0x117 JUMPI DUP1 PUSH4 0x95D89B41 EQ PUSH2 0x147 JUMPI DUP1 PUSH4 0xA9059CBB EQ PUSH2 0x165 JUMPI DUP1 PUSH4 0xDD62ED3E EQ PUSH2 0x195 JUMPI PUSH2 0x88 JUMP JUMPDEST DUP1 PUSH4 0x6FDDE03 EQ PUSH2 0x8D JUMPI DUP1 PUSH4 0x95EA7B3 EQ PUSH2 0xAB JUMPI DUP1 PUSH4 0x18160DDD EQ PUSH2 0xDB JUMPI DUP1 PUSH4 0x313CE567 EQ PUSH2 0xF9 JUMPI JUMPDEST PUSH1 0x0 DUP1 REVERT JUMPDEST PUSH2 0x95 PUSH2 0x1C5 JUMP JUMPDEST PUSH1 0x40 MLOAD PUSH2 0xA2 SWAP2 SWAP1 PUSH2 0x6BD JUMP JUMPDEST PUSH1 0x40 MLOAD DUP1 SWAP2 SUB SWAP1 RETURN JUMPDEST PUSH2 0xC5 PUSH1 0x4 DUP1 CALLDATASIZE SUB DUP2 ADD SWAP1 PUSH2 0xC0 SWAP2 SWAP1 PUSH2 0x60B JUMP JUMPDEST PUSH2 0x202 JUMP JUMPDEST PUSH1 0x40 MLOAD PUSH2 0xD2 SWAP2 SWAP1 PUSH2 0x6A2 JUMP JUMPDEST PUSH1 0x40 MLOAD DUP1 SWAP2 SUB SWAP1 RETURN JUMPDEST PUSH2 0xE3 PUSH2 0x2F0 JUMP JUMPDEST PUSH1 0x40 MLOAD PUSH2 0xF0 SWAP2 SWAP1 PUSH2 0x6DF JUMP JUMPDEST PUSH1 0x40 MLOAD DUP1 SWAP2 SUB SWAP1 RETURN JUMPDEST PUSH2 0x101 PUSH2 0x2FA JUMP JUMPDEST PUSH1 0x40 MLOAD PUSH2 0x10E SWAP2 SWAP1 PUSH2 0x6DF JUMP JUMPDEST PUSH1 0x40 MLOAD DUP1 SWAP2 SUB SWAP1 RETURN JUMPDEST PUSH2 0x131 PUSH1 0x4 DUP1 CALLDATASIZE SUB DUP2 ADD SWAP1 PUSH2 0x12C SWAP2 SWAP1 PUSH2 0x59E JUMP JUMPDEST PUSH2 0x306 JUMP JUMPDEST PUSH1 0x40 MLOAD PUSH2 0x13E SWAP2 SWAP1 PUSH2 0x6DF JUMP JUMPDEST PUSH1 0x40 MLOAD DUP1 SWAP2 SUB SWAP1 RETURN JUMPDEST PUSH2 0x14F PUSH2 0x34E JUMP JUMPDEST PUSH1 0x40 MLOAD PUSH2 0x15C SWAP2 SWAP1 PUSH2 0x6BD JUMP JUMPDEST PUSH1 0x40 MLOAD DUP1 SWAP2 SUB SWAP1 RETURN JUMPDEST PUSH2 0x17F PUSH1 0x4 DUP1 CALLDATASIZE SUB DUP2 ADD SWAP1 PUSH2 0x17A SWAP2 SWAP1 PUSH2 0x60B JUMP JUMPDEST PUSH2 0x38B JUMP JUMPDEST PUSH1 0x40 MLOAD PUSH2 0x18C SWAP2 SWAP1 PUSH2 0x6A2 JUMP JUMPDEST PUSH1 0x40 MLOAD DUP1 SWAP2 SUB SWAP1 RETURN JUMPDEST PUSH2 0x1AF PUSH1 0x4 DUP1 CALLDATASIZE SUB DUP2 ADD SWAP1 PUSH2 0x1AA SWAP2 SWAP1 PUSH2 0x5CB JUMP JUMPDEST PUSH2 0x4ED JUMP JUMPDEST PUSH1 0x40 MLOAD PUSH2 0x1BC SWAP2 SWAP1 PUSH2 0x6DF JUMP JUMPDEST PUSH1 0x40 MLOAD DUP1 SWAP2 SUB SWAP1 RETURN JUMPDEST PUSH1 0x60 PUSH1 0x40 MLOAD DUP1 PUSH1 0x40 ADD PUSH1 0x40 MSTORE DUP1 PUSH1 0x7 DUP2 MSTORE PUSH1 0x20 ADD PUSH32 0x4E4220436F696E00000000000000000000000000000000000000000000000000 DUP2 MSTORE POP SWAP1 POP SWAP1 JUMP JUMPDEST PUSH1 0x0 DUP2 PUSH1 0x1 PUSH1 0x0 CALLER PUSH20 0xFFFFFFFFFFFFFFFFFFFFFFFFFFFFFFFFFFFFFFFF AND PUSH20 0xFFFFFFFFFFFFFFFFFFFFFFFFFFFFFFFFFFFFFFFF AND DUP2 MSTORE PUSH1 0x20 ADD SWAP1 DUP2 MSTORE PUSH1 0x20 ADD PUSH1 0x0 KECCAK256 PUSH1 0x0 DUP6 PUSH20 0xFFFFFFFFFFFFFFFFFFFFFFFFFFFFFFFFFFFFFFFF AND PUSH20 0xFFFFFFFFFFFFFFFFFFFFFFFFFFFFFFFFFFFFFFFF AND DUP2 MSTORE PUSH1 0x20 ADD SWAP1 DUP2 MSTORE PUSH1 0x20 ADD PUSH1 0x0 KECCAK256 DUP2 SWAP1 SSTORE POP DUP3 PUSH20 0xFFFFFFFFFFFFFFFFFFFFFFFFFFFFFFFFFFFFFFFF AND CALLER PUSH20 0xFFFFFFFFFFFFFFFFFFFFFFFFFFFFFFFFFFFFFFFF AND PUSH32 0x8C5BE1E5EBEC7D5BD14F71427D1E84F3DD0314C0F7B2291E5B200AC8C7C3B925 DUP5 PUSH1 0x40 MLOAD PUSH2 0x2E2 SWAP2 SWAP1 PUSH2 0x6DF JUMP JUMPDEST PUSH1 0x40 MLOAD DUP1 SWAP2 SUB SWAP1 LOG3 SWAP3 SWAP2 POP POP JUMP JUMPDEST PUSH1 0x0 PUSH1 0x2 SLOAD SWAP1 POP SWAP1 JUMP JUMPDEST PUSH1 0x0 PUSH1 0x12 PUSH1 0xFF AND SWAP1 POP SWAP1 JUMP JUMPDEST PUSH1 0x0 DUP1 PUSH1 0x0 DUP4 PUSH20 0xFFFFFFFFFFFFFFFFFFFFFFFFFFFFFFFFFFFFFFFF AND PUSH20 0xFFFFFFFFFFFFFFFFFFFFFFFFFFFFFFFFFFFFFFFF AND DUP2 MSTORE PUSH1 0x20 ADD SWAP1 DUP2 MSTORE PUSH1 0x20 ADD PUSH1 0x0 KECCAK256 SLOAD SWAP1 POP SWAP2 SWAP1 POP JUMP JUMPDEST PUSH1 0x60 PUSH1 0x40 MLOAD DUP1 PUSH1 0x40 ADD PUSH1 0x40 MSTORE DUP1 PUSH1 0x3 DUP2 MSTORE PUSH1 0x20 ADD PUSH32 0x4E424E0000000000000000000000000000000000000000000000000000000000 DUP2 MSTORE POP SWAP1 POP SWAP1 JUMP JUMPDEST PUSH1 0x0 DUP1 PUSH1 0x0 CALLER PUSH20 0xFFFFFFFFFFFFFFFFFFFFFFFFFFFFFFFFFFFFFFFF AND PUSH20 0xFFFFFFFFFFFFFFFFFFFFFFFFFFFFFFFFFFFFFFFF AND DUP2 MSTORE PUSH1 0x20 ADD SWAP1 DUP2 MSTORE PUSH1 0x20 ADD PUSH1 0x0 KECCAK256 SLOAD DUP3 GT ISZERO PUSH2 0x3D8 JUMPI PUSH1 0x0 DUP1 REVERT JUMPDEST DUP2 PUSH1 0x0 DUP1 CALLER PUSH20 0xFFFFFFFFFFFFFFFFFFFFFFFFFFFFFFFFFFFFFFFF AND PUSH20 0xFFFFFFFFFFFFFFFFFFFFFFFFFFFFFFFFFFFFFFFF AND DUP2 MSTORE PUSH1 0x20 ADD SWAP1 DUP2 MSTORE PUSH1 0x20 ADD PUSH1 0x0 KECCAK256 PUSH1 0x0 DUP3 DUP3 SLOAD PUSH2 0x426 SWAP2 SWAP1 PUSH2 0x76C JUMP JUMPDEST SWAP3 POP POP DUP2 SWAP1 SSTORE POP DUP2 PUSH1 0x0 DUP1 DUP6 PUSH20 0xFFFFFFFFFFFFFFFFFFFFFFFFFFFFFFFFFFFFFFFF AND PUSH20 0xFFFFFFFFFFFFFFFFFFFFFFFFFFFFFFFFFFFFFFFF AND DUP2 MSTORE PUSH1 0x20 ADD SWAP1 DUP2 MSTORE PUSH1 0x20 ADD PUSH1 0x0 KECCAK256 PUSH1 0x0 DUP3 DUP3 SLOAD PUSH2 0x47B SWAP2 SWAP1 PUSH2 0x716 JUMP JUMPDEST SWAP3 POP POP DUP2 SWAP1 SSTORE POP DUP3 PUSH20 0xFFFFFFFFFFFFFFFFFFFFFFFFFFFFFFFFFFFFFFFF AND CALLER PUSH20 0xFFFFFFFFFFFFFFFFFFFFFFFFFFFFFFFFFFFFFFFF AND PUSH32 0xDDF252AD1BE2C89B69C2B068FC378DAA952BA7F163C4A11628F55A4DF523B3EF DUP5 PUSH1 0x40 MLOAD PUSH2 0x4DF SWAP2 SWAP1 PUSH2 0x6DF JUMP JUMPDEST PUSH1 0x40 MLOAD DUP1 SWAP2 SUB SWAP1 LOG3 SWAP3 SWAP2 POP POP JUMP JUMPDEST PUSH1 0x0 PUSH1 0x1 PUSH1 0x0 DUP5 PUSH20 0xFFFFFFFFFFFFFFFFFFFFFFFFFFFFFFFFFFFFFFFF AND PUSH20 0xFFFFFFFFFFFFFFFFFFFFFFFFFFFFFFFFFFFFFFFF AND DUP2 MSTORE PUSH1 0x20 ADD SWAP1 DUP2 MSTORE PUSH1 0x20 ADD PUSH1 0x0 KECCAK256 PUSH1 0x0 DUP4 PUSH20 0xFFFFFFFFFFFFFFFFFFFFFFFFFFFFFFFFFFFFFFFF AND PUSH20 0xFFFFFFFFFFFFFFFFFFFFFFFFFFFFFFFFFFFFFFFF AND DUP2 MSTORE PUSH1 0x20 ADD SWAP1 DUP2 MSTORE PUSH1 0x20 ADD PUSH1 0x0 KECCAK256 SLOAD SWAP1 POP SWAP3 SWAP2 POP POP JUMP JUMPDEST PUSH1 0x0 DUP2 CALLDATALOAD SWAP1 POP PUSH2 0x583 DUP2 PUSH2 0x860 JUMP JUMPDEST SWAP3 SWAP2 POP POP JUMP JUMPDEST PUSH1 0x0 DUP2 CALLDATALOAD SWAP1 POP PUSH2 0x598 DUP2 PUSH2 0x877 JUMP JUMPDEST SWAP3 SWAP2 POP POP JUMP JUMPDEST PUSH1 0x0 PUSH1 0x20 DUP3 DUP5 SUB SLT ISZERO PUSH2 0x5B4 JUMPI PUSH2 0x5B3 PUSH2 0x84A JUMP JUMPDEST JUMPDEST PUSH1 0x0 PUSH2 0x5C2 DUP5 DUP3 DUP6 ADD PUSH2 0x574 JUMP JUMPDEST SWAP2 POP POP SWAP3 SWAP2 POP POP JUMP JUMPDEST PUSH1 0x0 DUP1 PUSH1 0x40 DUP4 DUP6 SUB SLT ISZERO PUSH2 0x5E2 JUMPI PUSH2 0x5E1 PUSH2 0x84A JUMP JUMPDEST JUMPDEST PUSH1 0x0 PUSH2 0x5F0 DUP6 DUP3 DUP7 ADD PUSH2 0x574 JUMP JUMPDEST SWAP3 POP POP PUSH1 0x20 PUSH2 0x601 DUP6 DUP3 DUP7 ADD PUSH2 0x574 JUMP JUMPDEST SWAP2 POP POP SWAP3 POP SWAP3 SWAP1 POP JUMP JUMPDEST PUSH1 0x0 DUP1 PUSH1 0x40 DUP4 DUP6 SUB SLT ISZERO PUSH2 0x622 JUMPI PUSH2 0x621 PUSH2 0x84A JUMP JUMPDEST JUMPDEST PUSH1 0x0 PUSH2 0x630 DUP6 DUP3 DUP7 ADD PUSH2 0x574 JUMP JUMPDEST SWAP3 POP POP PUSH1 0x20 PUSH2 0x641 DUP6 DUP3 DUP7 ADD PUSH2 0x589 JUMP JUMPDEST SWAP2 POP POP SWAP3 POP SWAP3 SWAP1 POP JUMP JUMPDEST PUSH2 0x654 DUP2 PUSH2 0x7B2 JUMP JUMPDEST DUP3 MSTORE POP POP JUMP JUMPDEST PUSH1 0x0 PUSH2 0x665 DUP3 PUSH2 0x6FA JUMP JUMPDEST PUSH2 0x66F DUP2 DUP6 PUSH2 0x705 JUMP JUMPDEST SWAP4 POP PUSH2 0x67F DUP2 DUP6 PUSH1 0x20 DUP7 ADD PUSH2 0x7E8 JUMP JUMPDEST PUSH2 0x688 DUP2 PUSH2 0x84F JUMP JUMPDEST DUP5 ADD SWAP2 POP POP SWAP3 SWAP2 POP POP JUMP JUMPDEST PUSH2 0x69C DUP2 PUSH2 0x7DE JUMP JUMPDEST DUP3 MSTORE POP POP JUMP JUMPDEST PUSH1 0x0 PUSH1 0x20 DUP3 ADD SWAP1 POP PUSH2 0x6B7 PUSH1 0x0 DUP4 ADD DUP5 PUSH2 0x64B JUMP JUMPDEST SWAP3 SWAP2 POP POP JUMP JUMPDEST PUSH1 0x0 PUSH1 0x20 DUP3 ADD SWAP1 POP DUP2 DUP2 SUB PUSH1 0x0 DUP4 ADD MSTORE PUSH2 0x6D7 DUP2 DUP5 PUSH2 0x65A JUMP JUMPDEST SWAP1 POP SWAP3 SWAP2 POP POP JUMP JUMPDEST PUSH1 0x0 PUSH1 0x20 DUP3 ADD SWAP1 POP PUSH2 0x6F4 PUSH1 0x0 DUP4 ADD DUP5 PUSH2 0x693 JUMP JUMPDEST SWAP3 SWAP2 POP POP JUMP JUMPDEST PUSH1 0x0 DUP2 MLOAD SWAP1 POP SWAP2 SWAP1 POP JUMP JUMPDEST PUSH1 0x0 DUP3 DUP3 MSTORE PUSH1 0x20 DUP3 ADD SWAP1 POP SWAP3 SWAP2 POP POP JUMP JUMPDEST PUSH1 0x0 PUSH2 0x721 DUP3 PUSH2 0x7DE JUMP JUMPDEST SWAP2 POP PUSH2 0x72C DUP4 PUSH2 0x7DE JUMP JUMPDEST SWAP3 POP DUP3 PUSH32 0xFFFFFFFFFFFFFFFFFFFFFFFFFFFFFFFFFFFFFFFFFFFFFFFFFFFFFFFFFFFFFFFF SUB DUP3 GT ISZERO PUSH2 0x761 JUMPI PUSH2 0x760 PUSH2 0x81B JUMP JUMPDEST JUMPDEST DUP3 DUP3 ADD SWAP1 POP SWAP3 SWAP2 POP POP JUMP JUMPDEST PUSH1 0x0 PUSH2 0x777 DUP3 PUSH2 0x7DE JUMP JUMPDEST SWAP2 POP PUSH2 0x782 DUP4 PUSH2 0x7DE JUMP JUMPDEST SWAP3 POP DUP3 DUP3 LT ISZERO PUSH2 0x795 JUMPI PUSH2 0x794 PUSH2 0x81B JUMP JUMPDEST JUMPDEST DUP3 DUP3 SUB SWAP1 POP SWAP3 SWAP2 POP POP JUMP JUMPDEST PUSH1 0x0 PUSH2 0x7AB DUP3 PUSH2 0x7BE JUMP JUMPDEST SWAP1 POP SWAP2 SWAP1 POP JUMP JUMPDEST PUSH1 0x0 DUP2 ISZERO ISZERO SWAP1 POP SWAP2 SWAP1 POP JUMP JUMPDEST PUSH1 0x0 PUSH20 0xFFFFFFFFFFFFFFFFFFFFFFFFFFFFFFFFFFFFFFFF DUP3 AND SWAP1 POP SWAP2 SWAP1 POP JUMP JUMPDEST PUSH1 0x0 DUP2 SWAP1 POP SWAP2 SWAP1 POP JUMP JUMPDEST PUSH1 0x0 JUMPDEST DUP4 DUP2 LT ISZERO PUSH2 0x806 JUMPI DUP1 DUP3 ADD MLOAD DUP2 DUP5 ADD MSTORE PUSH1 0x20 DUP2 ADD SWAP1 POP PUSH2 0x7EB JUMP JUMPDEST DUP4 DUP2 GT ISZERO PUSH2 0x815 JUMPI PUSH1 0x0 DUP5 DUP5 ADD MSTORE JUMPDEST POP POP POP POP JUMP JUMPDEST PUSH32 0x4E487B7100000000000000000000000000000000000000000000000000000000 PUSH1 0x0 MSTORE PUSH1 0x11 PUSH1 0x4 MSTORE PUSH1 0x24 PUSH1 0x0 REVERT JUMPDEST PUSH1 0x0 DUP1 REVERT JUMPDEST PUSH1 0x0 PUSH1 0x1F NOT PUSH1 0x1F DUP4 ADD AND SWAP1 POP SWAP2 SWAP1 POP JUMP JUMPDEST PUSH2 0x869 DUP2 PUSH2 0x7A0 JUMP JUMPDEST DUP2 EQ PUSH2 0x874 JUMPI PUSH1 0x0 DUP1 REVERT JUMPDEST POP JUMP JUMPDEST PUSH2 0x880 DUP2 PUSH2 0x7DE JUMP JUMPDEST DUP2 EQ PUSH2 0x88B JUMPI PUSH1 0x0 DUP1 REVERT JUMPDEST POP JUMP INVALID LOG2 PUSH5 0x6970667358 0x22 SLT KECCAK256 0xC3 0x21 RETURN PUSH22 0xF64AF48D6699032A64C7A17D19A036F75D0981263AC0 0xD9 0xCE 0xD SWAP12 0xE PUSH32 0x64736F6C63430008070033000000000000000000000000000000000000000000 "
				},
				"gasEstimates": {
					"creation": {
						"codeDepositCost": "448800",
						"executionCost": "infinite",
						"totalCost": "infinite"
					},
					"external": {
						"allowance(address,address)": "infinite",
						"approve(address,uint256)": "infinite",
						"balanceOf(address)": "2841",
						"decimals()": "410",
						"name()": "infinite",
						"symbol()": "infinite",
						"totalSupply()": "2482",
						"transfer(address,uint256)": "infinite"
					}
				},
				"methodIdentifiers": {
					"allowance(address,address)": "dd62ed3e",
					"approve(address,uint256)": "095ea7b3",
					"balanceOf(address)": "70a08231",
					"decimals()": "313ce567",
					"name()": "06fdde03",
					"symbol()": "95d89b41",
					"totalSupply()": "18160ddd",
					"transfer(address,uint256)": "a9059cbb"
				}
			},
			"storageLayout": {
				"storage": [
					{
						"astId": 30,
						"contract": "contracts/NBCoin.sol:NBCoinERC20",
						"label": "balances",
						"offset": 0,
						"slot": "0",
						"type": "t_mapping(t_address,t_uint256)"
					},
					{
						"astId": 36,
						"contract": "contracts/NBCoin.sol:NBCoinERC20",
						"label": "allowed",
						"offset": 0,
						"slot": "1",
						"type": "t_mapping(t_address,t_mapping(t_address,t_uint256))"
					},
					{
						"astId": 38,
						"contract": "contracts/NBCoin.sol:NBCoinERC20",
						"label": "totalSupply_",
						"offset": 0,
						"slot": "2",
						"type": "t_uint256"
					}
				],
				"types": {
					"t_address": {
						"encoding": "inplace",
						"label": "address",
						"numberOfBytes": "20"
					},
					"t_mapping(t_address,t_mapping(t_address,t_uint256))": {
						"encoding": "mapping",
						"key": "t_address",
						"label": "mapping(address => mapping(address => uint256))",
						"numberOfBytes": "32",
						"value": "t_mapping(t_address,t_uint256)"
					},
					"t_mapping(t_address,t_uint256)": {
						"encoding": "mapping",
						"key": "t_address",
						"label": "mapping(address => uint256)",
						"numberOfBytes": "32",
						"value": "t_uint256"
					},
					"t_uint256": {
						"encoding": "inplace",
						"label": "uint256",
						"numberOfBytes": "32"
					}
				}
			},
			"userdoc": {
				"kind": "user",
				"methods": {},
				"version": 1
			}
		}
	}
}